:1000000017C026C025C024C008C122C021C020C0FE
:100010001FC01EC01DC01CC01BC01AC019C00036A6
:10002000003700380101010101010102040810201C
:1000300011241FBECFE5D2E0DEBFCDBF20E0A0E699
:10004000B0E001C01D92A137B207E1F72DD143C244
:10005000D7CF282F30E0F901E65DFF4F9491F901E9
:10006000EC5DFF4FE491EE2331F1811103C08AB5BD
:100070008F7304C0813021F48AB58F7C8ABD05C09E
:10008000843019F48CB58F7C8CBDF0E0EE5DFF4FB1
:10009000A491B0E0611109C02FB7F8948C91E92FB9
:1000A000E095E823EC932FBF08958FB7F894EC9177
:1000B000E92BEC938FBF0895CF93DF9390E0FC0181
:1000C000E65DFF4F2491FC01EC5DFF4F8491882396
:1000D00059F190E0FC01E05EFF4FE491CE2FD0E0BB
:1000E000FC01EE5DFF4F8491611108C09FB7F89449
:1000F0008881E22FE095E823E8830EC0623071F436
:10010000A82FB0E09FB7F8948881322F30958323D1
:100110008883EC91E22BEC939FBF06C08FB7F894D5
:10012000E881E22BE8838FBFDF91CF9108953FB73D
:10013000F89480916D0090916E00A0916F00B09145
:1001400070002FB508B602FE05C02F3F19F00196CA
:10015000A11DB11D3FBFBA2FA92F982F8827820F4D
:10016000911DA11DB11DBC01CD0142E0660F771F9D
:10017000881F991F4A95D1F70895CF92DF92EF9289
:10018000FF92CF93DF936B017C01D1DFEB01C114B0
:10019000D104E104F10471F0CADF6C1B7D0B683EF1
:1001A0007340A8F381E0C81AD108E108F108C851EA
:1001B000DC4FEDCFDF91CF91FF90EF90DF90CF90AC
:1001C00008952FB7F8946091690070916A0080914A
:1001D0006B0090916C002FBF089568EE73E080E093
:1001E00090E0CBDF809162008F5F80936200089582
:1001F00010926700109263001092640010926500E4
:100200001092660060E084E024DF61E080E021DF9E
:100210001092600010926100089578941F920F92DE
:100220000FB60F9211242F933F938F939F93AF9309
:10023000BF938091690090916A00A0916B00B0918A
:100240006C00309168002CE7230F2D3728F02FEF3A
:10025000230F0196A11DB11D2093680080936900B2
:1002600090936A00A0936B00B0936C0080916D0036
:1002700090916E00A0916F00B09170000196A11D49
:10028000B11D80936D0090936E00A0936F00B093AA
:100290007000BF91AF919F918F913F912F910F90DF
:1002A0000FBE0F901F901895789480B7806880BF1C
:1002B00080B7806480BF8CB580648CBD8FEF8DBDAE
:1002C00080B7807F876080BF89B7846089BF83B72C
:1002D000887F83BF8AB58C7F81608ABD83B7877F23
:1002E00083BF83B7887F836083BF86B1876086B909
:1002F000379A60E081E0E0DE60E082E0DDDE61E030
:1003000080E0DADE61E084E0D7DE72DF8BE2E82EA7
:1003100080E0F82E95E2C92E90E0D92E22E0B22E90
:10032000CCE2D0E006E210E0F7012491F6018491DE
:10033000882381F09AB59F7C9ABDE82FF0E0E25EB9
:10034000FF4FE491F0E08081822391E009F490E096
:10035000A92E01C0A12CA092610080916000A81676
:1003600009F444C0F1E0AF123AC0809167008823DD
:1003700019F0813091F033C0A092670022DF6093C2
:100380006300709364008093650090936600109200
:10039000620060E080E05DDE22C013DF4090630019
:1003A000509064006090650070906600DC01CB01A5
:1003B00084199509A609B70981349C49A105B1059D
:1003C00070F061E084E045DEB0926700FADE609391
:1003D0006300709364008093650090936600A09220
:1003E000600064E670E080E090E0C7DE8091670026
:1003F000813009F438C0823009F096CFE2DE4090B7
:100400006300509064006090650070906600DC01AD
:10041000CB0184199509A609B70981349C49A10526
:10042000B10508F0E5DEFE019491F801849188237E
:1004300079F0E82FF0E0E25EFF4FE491F0E0808198
:10044000892321E030E011F420E030E0232B01F596
:1004500080916200882309F467CF8B3010F4BDDEF1
:1004600063CFC6DE61CFFE019491F80184918823A9
:1004700099F0E82FF0E0E25EFF4FE491F0E0808138
:10048000892321E030E011F420E030E0232B21F03B
:1004900081E08093620048CF94DE409063005090EA
:1004A00064006090650070906600DC01CB018419E7
:1004B0009509A609B70981349C49A105B10508F43D
:1004C00033CF80916200882309F42ECF8B3008F05F
:0A04D000C8CF83DE29CFF894FFCFD8
:00000001FF
